:020000040800F2
:10000000D81B0020C50200089F5C0008714400084E
:100010009D5C0008D5170008D165000800000000AD
:10002000000000000000000000000000E55E000885
:100030006D19000800000000A15C0008715F000855
:10004000DF020008DF020008DF020008DF0200080C
:10005000DF020008DF020008DF020008DF020008FC
:10006000DF020008DF020008DF020008DF020008EC
:10007000DF020008DF020008DF020008DF020008DC
:10008000DF020008DF020008DF020008DF020008CC
:10009000DF020008DF020008DF020008DF020008BC
:1000A000DF020008DF020008DF020008DF020008AC
:1000B000DF020008DF020008DF020008DF0200089C
:1000C000DF020008DF020008DF020008DF0200088C
:1000D000DF020008A1650008DF020008DF02000857
:1000E000DF020008DF020008DF020008DF0200086C
:1000F000DF020008DF020008DF020008DF0200085C
:10010000DF020008DF020008DF020008DF0200084B
:10011000DF020008DF020008DF020008DF0200083B
:10012000DF020008DF020008B1180008DF02000843
:10013000DF0200080000000000000000DF020008ED
:10014000DF020008DF020008DF020008DF0200080B
:10015000DF020008DF020008BD180008DF02000807
:10016000DF020008DF020008DF020008DF020008EB
:10017000DF020008DF020008DF02000800000000C4
:1001800000000000DF020008000000000000000086
:10019000DF0200080000000000000000DF0200088D
:1001A000000000000000000000000000DF02000866
:1001B000DF020008DF020008DF020008DF0200089B
:1001C000DF02000800F002F800F06DF80AA090E8E5
:1001D000000C82448344AAF10107DA4501D100F002
:1001E00062F8AFF2090EBAE80F0013F0010F18BF62
:1001F000FB1A43F001031847B48A0000D48A0000B8
:100200000A444FF0000C10F8013B13F0070408BF3C
:1002100010F8014B1D1108BF10F8015B641E05D0DA
:1002200010F8016B641E01F8016BF9D113F0080F8F
:100230001EBF10F8014BAD1C0C1B09D16D1E58BF21
:1002400001F801CBFAD505E014F8016B01F8016B58
:100250006D1EF9D59142D6D37047000000230024CB
:1002600000250026103A28BF78C1FBD8520728BFC6
:1002700030C148BF0B607047662908F0838364294A
:1002800000F01481732900F05185002070471FB5DC
:1002900000F062FD04000020002107F027FBE06071
:1002A0001FBD10B510BD00F05FFE1146FFF7EFFF58
:1002B00007F022F800F07DFE03B4FFF7F2FF03BC65
:1002C00006F095FB0948804709480047FEE7FEE72E
:1002D000FEE7FEE7FEE7FEE7FEE7FEE7FEE7FEE7F6
:1002E00004480549054A064B7047000009600008AC
:1002F000C5010008D8150020D81B0020D817002001
:10030000D8170020704753EA020C00F069802DE9ED
:10031000F04B4FF00006002B1FBFB3FA83F503FA32
:1003200005F424FA05F65E4012BF1643B2FA82F5D0
:1003300002FA05F4C5F120051EBF22FA05FC44EAC5
:100340000C04203556EA044C4FEA144418BF641CD0
:100350004FF000084FF00009904271EB030C39D3C5
:10036000002919BFB1FA81F701FA07F6B0FA80F750
:1003700000FA07F6C7F120071EBF20FA07FC46EA7D
:100380000C062037B6FBF4FCA7EB0507103F07F07F
:100390001F0BCBF120060CFA0BFB2CFA06F644BF20
:1003A000B3460026202FA4BF5E464FF0000B5BEA49
:1003B000060C08BF4FF0010B19EB0B09ABFB027CDD
:1003C00048EB0608C01B06FB02CC0BFB03CC71EB11
:1003D0000C01C1E70B46024641464846BDE8F08B9A
:1003E00013B54FF000004FF00001AFF30080BDE8FF
:1003F0001C4070470FB4044910B503AA029800F0DE
:1004000099FC10BC5DF814FB2401002070B5044673
:1004100085690068C10601D5302600E02026C007A6
:1004200007D070BDD4E9012130469047206A401CB6
:1004300020626D1EF6D570BD70B5044685690078E2
:10044000C00707D170BDD4E9012120209047206A60
:10045000401C20626D1EF6D570BD70B50C46054679
:10046000012A05D02878800600D5EA69002302E039
:10047000012305E05B1C934202D2E05C0028F9D125
:10048000A869E618C01AA861286A18442862284694
:10049000FFF7BCFF04E0D5E9012114F8010B9047F8
:1004A000B442F8D32846FFF7C7FF70BD2DE9F041ED
:1004B0000646002410687529314616A510D0AFF302
:1004C0000080002802DA404213A507E031688A075D
:1004D00001D512A502E0490704D511A5012401E0C8
:1004E000AFF3008000210A2206F1240709E0B0FBE7
:1004F000F2FCB0FBF2F302FB1C00303078541846DB
:10050000491C0028F3D123462A463046BDE8F04175
:1005100000F079B9000000002D0000002B00000061
:10052000200000002DE9F05F894604464FF0000AE4
:10053000DFF874B1FB44C0F820A02046E16888478A
:10054000002874D0252806D0D4E901219047206ADC
:10055000401C2062F1E700265F462046E16888479C
:100560002028054607DB312D05D2781910F8200C1C
:1005700008B10643F1E7B00701D526F00406C4F838
:100580001CA00027C4F818A02A2D09D0284606F080
:1005900027FA38B304EB8708303DC8F8185019E043
:1005A00059F8041B204604EB87029161E1688847F3
:1005B000012F054618D1E069002820DA26F0200630
:1005C0001DE0D8F8180000EB800005EB4000303843
:1005D000C8F818002046E1688847054606F000FA8A
:1005E0000028EED1012F0AD02E2D08D12046E16837
:1005F00088477F1C0546022F46F02006C4DBA06911
:10060000002803DA404246F00106A061F00701D05D
:1006100026F010066C2D0BD0682D09D04C2D39D04A
:100620006A2D35D0742D35D07A2D33D016E038E0D0
:10063000E1682F4620468847B842054609D16C2F0D
:1006400026D04FF48060E16806432046884705467F
:1006500004E06C2F1AD04FF4807006430DB3A5F15F
:100660004100192802D8203546F400664A4629463A
:10067000204626604E46FFF7FFFD80B101280BD0D3
:10068000F61D26F0070000F1080956E74020E4E7D0
:100690008020D8E70020D6E706F104094DE7284678
:1006A00052E7206ABDE8F09FDD850000032A40F292
:1006B000308010F0030C00F0158011F8013BBCF104
:1006C000020F624498BF11F801CB00F8013B38BF1C
:1006D00011F8013BA2F1040298BF00F801CB38BF2A
:1006E00000F8013B11F0030300F02580083AC0F048
:1006F000088051F8043B083A51F804CBA0E80810F0
:10070000F5E7121D5CBF51F8043B40F8043BAFF322
:100710000080D20724BF11F8013B11F801CB48BF7C
:1007200011F8012B24BF00F8013B00F801CB48BFB2
:1007300000F8012B704710B5203AC0F00B80B1E8EB
:100740001850203AA0E81850B1E81850A0E8185006
:10075000BFF4F5AF5FEA027C24BFB1E81850A0E80F
:10076000185044BF18C918C0BDE810405FEA827C29
:1007700024BF51F8043B40F8043B08BF7047D20740
:1007800028BF31F8023B48BF11F8012B28BF20F8E1
:10079000023B48BF00F8012B70474FF0000200B544
:1007A000134694469646203922BFA0E80C50A0E894
:1007B0000C50B1F12001BFF4F7AF090728BFA0E842
:1007C0000C5048BF0CC05DF804EB890028BF40F80E
:1007D000042B08BF704748BF20F8022B11F0804F50
:1007E00018BF00F8012B704770477047704770477B
:1007F00010B500F0B5FA006810BD10B5044600F061
:10080000AFFA046010BD2DE9F0470D4699469246B7
:10081000044600F124080168880604D5E06921F047
:100820001001216000E00120A84201DD471B00E02B
:100830000027A1697A1902EB0900081AA061207843
:10084000C00602D42046FFF7E1FD002608E0D4E907
:1008500001211AF806009047206A401C761C20628D
:100860004E45F4DB2078C0060AD52046FFF7CEFDC2
:1008700006E0D4E9012130209047206A401C206224
:10088000381EA7F10107F4DC07E0D4E9012118F8CC
:1008900005009047206A401C2062281EA5F1010532
:1008A000F3DC2046FFF7C8FD2078000602D50220C1
:1008B000BDE8F0870120FBE770472DE9FF4F0C46AC
:1008C0001E464FF0FF378BB0D2E90001DDF86080A3
:1008D0000A908A46C1F30A5505B93D4600210846EB
:1008E0004FF00000BAF1000F00F4400005DA00EB11
:1008F00080004FF4400101EA50004FEA9059B9F1ED
:10090000010F00DDB9460A9850EA4A000ED044F6BD
:100910001050A5F2FF3545432F14B8F1000F1ED03B
:100920007542291E1EDDC9F100021CE0B8F1010F5D
:100930004FF0000001D0302103E0F24305E02154E4
:10094000401CB042FBDB30460022002121540B99B1
:10095000C1F80880C1E900200FB0BDE8F08FBD1BD1
:100960006D1CDEE74A4600DA694206A800F082FA0A
:1009700006AB93E8070003AB83E8070050460A99EB
:1009800000F060FB8DE80700A0F500501F380090D4
:100990000398002D0ADD42F21F014A460844002355
:1009A00003A90390684600F0C9FD09E0A0F50050D6
:1009B0004A461F38002303A90390684600F0D3FD80
:1009C0008DE807000004000C03D04FF0FF30410811
:1009D00000E01046B8F1000F03D000220092154647
:1009E0001EE0751E05D400F0BFF9303262556D1E51
:1009F000F9D5B3460122084302D000227F1C04E04F
:100A00002078302801D100227F1E002A099784D047
:100A10001DE0112D07DA00F0A7F9303262556D1C88
:100A200050EA0102F5D1084302D00098C8B10EE0A7
:100A30000021681E05E0235C625C63542254401E62
:100A4000491C8142F7DBAB46A81B401E09900020E1
:100A500004F80B000B98099AC0F80880C0E9002B35
:100A60007AE711264FF0000857E72DE9F04F884646
:100A70000446D21D22F0070191B0D1E90001CDE971
:100A80000A0105F020FF02460B98C00F01D02D206F
:100A900007E02068810701D52B2002E0202101EA30
:100AA000C000032A099001D0072A05DB034641460E
:100AB000204600F09FF90BE12078800601D5E0691F
:100AC00000E00620B8F1650F814606D0B8F1660F48
:100AD00018D0B8F1670F70D131E00020B9F1110FD3
:100AE000009001DB112301E009F101030AAA01A929
:100AF0000CA8FFF7E2FEDDE90C70002609F1010504
:100B0000834647E001204B4600904FF000470AAA79
:100B100001A90CA8FFF7D1FEDDE90DB00C995D46E7
:100B2000002610B909F101000D18B9EB050003D436
:100B3000C0F1FF3609F10105A5EB09002BE0B9F181
:100B4000010F01DA4FF001090020B9F1110F0090F7
:100B5000484601DD112300E003460AAA01A90CA8BA
:100B6000FFF7ABFEDDE90C704D460026834620788A
:100B700000070AD4AB4500DA5D4601A8012D04DD6B
:100B8000411911F8011C302907D04F4502DA17F13D
:100B9000040F04DA012082460FE06D1EEEE7002FFD
:100BA00002DCED1B3E4403E0781CA84200DD7D1C06
:100BB000B81B00F1010A4FF000472078000703D46A
:100BC000AA4501DB4FF0FF3A0021B7F1004F0DF1CC
:100BD00043088DF8431024D002202B23002F01DA84
:100BE0007F422D230A21021EA0F1010000DC5FB12B
:100BF00097FBF1FC97FBF1F201FB1C7C17460CF113
:100C0000300C08F801CDEEE7A8F10100037021884F
:100C1000090501D5452100E06521A0F1010800F892
:100C2000011C09980FA9A1EB0807FF1D00B10120C5
:100C3000411901EBEA70A1693844081A401EA0610D
:100C40002078C00602D42046FFF7E0FB099828B1BF
:100C5000D4E901219047206A401C20622078C00618
:100C600022D52046FFF7D2FB1EE0002E04DBB34561
:100C700002DD01A8805D00E03020D4E90121904729
:100C8000206A401C2062761CAAF101005FEA000A7B
:100C90000AD100F061F8C0680168405CD4E9012124
:100CA0009047206A401C2062281EA5F10105DCDC6B
:100CB00007E0D4E9012118F8010B9047206A401C95
:100CC0002062381EA7F10107F3DC2046FFF7B4FBD2
:100CD000032011B041E6000001694A1C0261087856
:100CE000704700B58FB0CDE901310021059105496C
:100CF0007944CDE9031011466846FFF713FC0FB0A5
:100D000000BD0000E5FFFFFF10B5436913B1AFF36D
:100D1000008001E0FFF7A1FB012010BD127800F177
:100D200024010A7000224A700122EDE711684FF099
:100D3000FF32E9E7074B70B50D467B44FFF7D1FF63
:100D40000446284600F008F910B14FF0FF3070BD9E
:100D5000204670BD5B640000004870479815002075
:100D6000004870477815002030B5B0F10A024FEA0C
:100D7000900E71F100034EEA817EB0EB0E0061EB44
:100D800091014FEA101E4EEA017E10EB0E0041EB7E
:100D900011114FEA102E4EEA016E10EB0E0041EBDE
:100DA00011214FEA104E4EEA014E10EB0E0041EBBE
:100DB0001141401841F100014FEAD00040EA417072
:100DC0004FEAD10110EB80054FEA810444EA9074A8
:100DD00044EB01046D1944EB0404521BA3414FF092
:100DE000000348BF0A3200D530BD401C41F100016C
:100DF00030BD00002DE9F0411F460446032601687E
:100E0000072A01F4006004DB08B116A505E016A569
:100E100003E008B115A500E015A521F01000206041
:100E2000A069C01EA0610FB1401EA0612046FFF75F
:100E3000EDFA4FB1D4E9012138469047206A401CB1
:100E40002062C01C206206E0206AFAE7D4E9012192
:100E500015F8010B9047761EF8D22046FFF7ECFA02
:100E6000BDE8F0814E414E006E616E00494E460075
:100E7000696E66002DE9F047814616468AB035480E
:100E800078440DC88DE80D0032487844801C03ACCE
:100E90000DC884E80D0041F69B300844372190FBD3
:100EA000F1F290FBF1F5A5F1800501FB12041B3C6A
:100EB00002D56442012000E00020DFF898A08046BF
:100EC0000027FA44AAF1BE0A0EE0E0070AD0324633
:100ED000684607EB470101230AEB810100F043FB61
:100EE0008DE8070064107F1C002CEED1194F7F4461
:100EF000AE3F19E0E80715D007EB04100DF1180A12
:100F000090E80E008AE80E00C068F04201D19819FE
:100F100008903246012306A903A800F024FB03AB86
:100F200083E807006D10641C002DE3D14FF001032E
:100F300032466946B8F1000F03A802D000F0FEFA6D
:100F400001E000F010FBC9E90001C9F808200AB06F
:100F5000BDE8F087107E0000007B00F08000704745
:100F600000487047781500207546FFF7F9FFAE4638
:100F700005006946534620F00700854618B020B5A5
:100F8000FFF7AEF9BDE820404FF000064FF0000734
:100F90004FF000084FF0000B21F00701AC46ACE821
:100FA000C009ACE8C009ACE8C009ACE8C0098D468E
:100FB000704710B50446AFF300802046BDE81040EE
:100FC000FFF77AB94FF0013C50F8042B51F8043B7D
:100FD0009A4221D1A2EB0C03934313EACC1317D10D
:100FE00050F8042B51F8043B9A4215D1A2EB0C03A4
:100FF000934313EACC130BD150F8042B51F8043B64
:101000009A4209D1A2EB0C03934313EACC13DBD031
:101010004FF00000704700BFD01A01BAB1FA81F159
:1010200001F0180122FA01F0CB40C1F12001DBB23E
:10103000C0B2C01A2CFA01F3D11A914311EAC311BC
:10104000E6D170475FEA400C08BF91F0000F4FEA0D
:101050008C234FEAC12243EA51514FEA1C5018BF7A
:1010600000F5F0404FEA300018BF41F000415FEA60
:101070006C5C00F02980BCF1FF3F08BF40F080406D
:101080007047130C06BF12044FF0100C4FF0000C09
:10109000130E04BF12020CF1080C130F04BF12014F
:1010A0000CF1040C930F04BF92000CF1020CD30F4F
:1010B00004BF52000CF1010C11464FF00002A0F1E8
:1010C0001F00A0EB0C00704711F0004F08BF7047E5
:1010D00031F000413FF4D5AF0B0C06BF09044FF0CF
:1010E000100C4FF0000C0B0E04BF09020CF1080CA1
:1010F0000B0F04BF09010CF1040C8B0F04BF890016
:101100000CF1020CCB0F04BF49000CF1010CCCF127
:101110002003A0EB0C0022FA03F302FA0CF241EADE
:10112000030100F10100704720F07F4C80EA0300CA
:1011300023F07F47ACEB070303F57C5300F000403E
:1011400003F1FF032DE980494FEA154B09B44FEA3B
:10115000144325EA0B4E24EA03480FF2042606EB5B
:10116000132749083E785FEA320203FB0667C7F59A
:10117000000707FB06F64FEA54374FEAD64606F15A
:10118000020607FB066CCCF1005C4FEA1C472CEA18
:10119000074C07FB06F40CFB06F504EB15464FEA7B
:1011A000961634BF00204FF000404FEAD13706FBBF
:1011B00007FC4FEA1C4C0CFB0BF7D21B03FB0CF794
:1011C00061EB07010CFB0EF7B0EB074072EB174227
:1011D0000CFB08F734BFA2EB0742B2EB074261EB0E
:1011E00017414FEA0C444FEA910706FB07FC4FEA10
:1011F0001C4C0CFB0BF7B0EBC74072EB573203FBF8
:101200000CF734BFA2EBC742B2EBC74261EB5731D8
:101210000CFB0EF7B0EBC70072EB57720CFB08F734
:1012200034BFA2EBC702B2EBC70261EB5771039F59
:101230004FEA816141EA921104EBCC044FEAD137C5
:101240004FEA826206FB07FC42EA90124FEA806096
:101250004FEA1C4C0CFB0BF7D21B03FB0CF761EBAA
:1012600007010CFB0EF7B0EB074072EB17420CFBCB
:1012700008F734BFA2EB0742B2EB074261EB17411C
:101280004FEA8C554FEA910704EB9C2406FB07FCC0
:101290004FEA1C4C0CFB0BF7B0EBC74072EB57321C
:1012A00003FB0CF734BFA2EBC742B2EBC74261EBC2
:1012B00057310CFB0EF7B0EBC70072EB57720CFB0B
:1012C00008F734BFA2EBC702B2EBC70261EB57715C
:1012D00015EB4C254FEA816141EA92114FEA826297
:1012E0004FEAD13742EA901206FB07FC44F10004B2
:1012F0004FEA80604FEA1C4C0CFB0BF7D21B03FB40
:101300000CF761EB07010CFB0EF7B0EB074072EB3B
:1013100017420CFB08F734BFA2EB0742B2EB0742BF
:1013200061EB174115EB1C154FEA813141EA9241FF
:101330004FEA823242EA90424FEA80304FEA0C761E
:1013400044F1000448EA03434EEA0B484FF0000E14
:10135000B2EB080C71EB030724BF624639464EEB33
:101360000E0E4FF0000B0018524149414BEB0B0B96
:10137000B2EB080C71EB03077BF1000B24BF624654
:1013800039464EEB0E0E4FF0000B0018524149410A
:101390004BEB0B0BB2EB080C71EB03077BF1000B73
:1013A00024BF624639464EEB0E0E51EA020718BFC3
:1013B00046F0010616EB0E7655F1000254F10001DD
:1013C00003D5BDE88901BDE80088BDE88901BDE815
:1013D0000048B619524141EB0101A3F101037047E6
:1013E00080807F7E7D7C7B7A797877767675747362
:1013F000727171706F6E6E6D6C6C6B6A6A69686821
:10140000676666656464636362616160605F5F5EB6
:101410005E5D5D5C5C5B5B5A5A595958585757562C
:101420005655555554545353525252515150505091
:101430004F4F4F4E4E4D4D4D4C4C4C4B4B4B4A4AE3
:101440004A49494948484847474747464646454527
:101450004544444444434343434242424241414160
:10146000002B9C4630D477002BD01CB54FEA3707B1
:1014700003B44FF010004FF01001BAF1000F06D086
:10148000BCF1000FDCBF40F0080040F008014FF055
:1014900000000FBCBDE810400BF1010BBBF1010FC8
:1014A00008BF5FEA170722BF12F1010211F1010123
:1014B0004FF0004143F1000300F0004043EA000018
:1014C0007047F9D35708D0E746EA064613F1400FB4
:1014D0004FEA16461FDD13F1200FDFBF16430A4601
:1014E000002120335B42BED0C3F1200746EA064606
:1014F00002FA07F74FEA164646EA0706C3F1200745
:1015000022FA03F201FA07F721FA03F14FF0000380
:1015100042EA0702A7E746EA020646EA06464FEA1B
:10152000164646EA0106BCBF46EA0646360C4FF0B0
:1015300000034FF000024FF0000194E72DE9804CCA
:101540009A46934670B491E8380007C831EA400CD7
:1015500048BF34EA430C03D5FFF7E6FDFFF780FFF1
:10156000F0BCBDE8008C2DE9804C9A46934670B4DF
:1015700091E8380007C810F0804F08BF13F0804F83
:1015800003D100F005F8FFF76BFFF0BCBDE8008C5D
:1015900020F07F4780EA030023F07F4C07EB0C0329
:1015A000A3F57C5300F00040A3F1FE0392F0000F7E
:1015B00000F0B38095F0000F00F077802DE901492D
:1015C0004FEA11404FEA144621EA004800FB06FCAE
:1015D00024EA064708FB06F607FB08F800FB07F7B6
:1015E00018EB06484CEB164C4FEA124B18EB074829
:1015F0004FEA15464CEB174022EA0B4E0BFB06FC5C
:1016000025EA06470EFB06F607FB0EFE0BFB07F767
:101610001EEB064E4CEB164C4FF000061EEB074E31
:101620004CEB174B18EB0B0840F1000018EB0E0BBE
:1016300058EB000840F100008F1A4FF000013CBF4A
:10164000C943661B14BFB5EB040C00213CBFC94362
:10165000F61B4FEA17444EEA8E0E27EA04454FEA7E
:101660001C4704FB07622CEA074C05FB07F70CFB41
:1016700005F604FB0CFC16EB074642EB174216EB93
:101680000C4642EB1C421BEB060658EB02024141A2
:1016900046EA9E0601D5BDE80189B619524141EBE3
:1016A0000101A3F10103BDE801894FEA14454FEAA6
:1016B000114724EA054621EA074C05FB07F406FB1F
:1016C00007F70CFB06F105FB0CFC11EB074144EBA3
:1016D00017444FEA124711EB0C4144EB1C4422EA39
:1016E000074C05FB07F206FB07F70CFB06F605FBAC
:1016F0000CFC16EB074642EB174216EB0C4642EB8E
:101700001C456A1854F1000148BF7047B619524190
:1017100041EB0101A3F10103704795F0000F37D0B1
:101720004FEA11424FEA144721EA024624EA074CE5
:1017300002FB07F106FB07F70CFB06F402FB0CFCAF
:1017400014EB074441EB17414FEA154714EB0C44E7
:1017500041EB1C4125EA074C02FB07F506FB07F7A6
:101760000CFB06F602FB0CFC16EB074645EB174597
:1017700016EB0C4645EB1C42121951F1000148BF13
:101780007047B619524141EB0101A3F101037047C3
:101790004FEA14454FEA114724EA054621EA074C6F
:1017A00005FB07F106FB07F70CFB06F24FF00006FE
:1017B00005FB0CFC12EB074241EB174112EB0C420C
:1017C00051EB1C4148BF7047921841EB0101A3F156
:1017D00001037047FEE700002DE9F0418046144EFA
:1017E000084606F0D9FD134A134B06F015FB134DBE
:1017F00007460C46E86A06F0CFFD3A46234606F057
:10180000BDF802460B4600200D4906F005FB0746D1
:101810000C463146404606F02DFF06F0BDFD3A4627
:10182000234606F0ABF806F077F8E862BDE8F081F1
:101830000AD7A33CFCA9F1D24D62603F880000208A
:10184000295CEF3F2DE9F0418046144E084606F032
:10185000A3FD134A134B06F0DFFA134D07460C465F
:10186000E86D06F099FD3A46234606F087F80246F1
:101870000B4600200D4906F0CFFA07460C463146CC
:10188000404606F0F7FE06F087FD3A46234606F08E
:1018900075F806F041F8E865BDE8F0810AD7A33C89
:1018A000FCA9F1D24D62603F88000020295CEF3F27
:1018B000014800F0F1BC000040080020014800F0A1
:1018C000EBBC0000E007002001681823CAB2103A00
:1018D000B2FBF3F2054B6FF30901032A9B5CC3656E
:1018E00000D9091D8165084670470000C48A0008B8
:1018F00010B5014600208B698A6A4FF0C07453B15D
:10190000B3F5005F15D072B1012A0CD0022A0AD0BB
:10191000032A09D104E01AB1012A06D0022A03D110
:10192000C96AC90100D5012010BDC96AA142FAD017
:1019300010BD002AF7D0012AF2D0022AF3D0032AE0
:10194000F3D010BD30B50468256825F480252560E6
:10195000046863608368402B036803D09960006863
:10196000C26030BD9A600068C16030BD7047000041
:1019700072B6E12101A005F073F900002E2E2F436D
:101980006F72652F5372632F6D61696E2E63000055
:1019900070B50E4604004FF0000512D0012C10D097
:1019A000022C0ED0032C0CD0042C0AD0052C08D00D
:1019B000062C06D0072C04D040F2D93116A005F031
:1019C0004FF966B1012E24D0022E1FD0032E04D071
:1019D00040F2DA3110A005F043F94FF440751E488B
:1019E000016821F4407101600168294301600168C8
:1019F00021F0F80101600168022202EBC4021143E8
:101A00000160016841F48031016070BD4FF40075E0
:101A1000E5E74FF48075E2E72E2E2F447269766574
:101A200072732F53544D3332463478785F48414CAB
:101A30005F4472697665722F5372632F73746D33CE
:101A400032663478785F68616C5F666C6173685F7A
:101A500065782E6300000000103C024013480168C6
:101A600089050FD5016821F400710160016841F416
:101A700000610160016821F400610160016841F4C6
:101A800000710160016849050FD5016821F480618A
:101A90000160016841F480510160016821F48051C6
:101AA0000160016841F4806101607047003C0240C0
:101AB00070B50D4604000AD0012C08D0022C06D0C7
:101AC000032C04D040F2BA310DA005F0C9F8012D65
:101AD00004D040F2BB310AA005F0C2F818480168F2
:101AE00021F440710160016841F004010160016866
:101AF0004FF4803242EA04221143016070BD0000BD
:101B00002E2E2F447269766572732F53544D3332E3
:101B1000463478785F48414C5F4472697665722F2D
:101B20005372632F73746D3332663478785F6861F3
:101B30006C5F666C6173685F65782E6300000000FF
:101B4000103C024070B50446A0F100600D46B0F5AF
:101B5000002F09D30B482044B0F5047F04D340F292
:101B6000B92109A005F07CF8164A106820F44070ED
:101B7000106010681060106840F00100106025705F
:101B800070BD0000008800E02E2E2F44726976653B
:101B900072732F53544D3332463478785F48414C3A
:101BA0005F4472697665722F5372632F73746D335D
:101BB00032663478785F68616C5F666C6173682E3A
:101BC00063000000103C024070B50446A0F10060C4
:101BD00015461E46B0F5002F09D30E482044B0F537
:101BE000047F04D340F265210BA005F039F81948B1
:101BF000016821F440710160016841F440710160A5
:101C0000016841F0010101602560BFF36F8F6660DC
:101C100070BD0000008800E02E2E2F4472697665AA
:101C200072732F53544D3332463478785F48414CA9
:101C30005F4472697665722F5372632F73746D33CC
:101C400032663478785F68616C5F666C6173682EA9
:101C500063000000103C024070B50446A0F1006033
:101C60000D46B0F5002F09D30C482044B0F5047F91
:101C700004D34FF428710AA004F0F2FF174A106849
:101C800020F440701060106840F48070106010689C
:101C900040F001001060258070BD0000008800E069
:101CA0002E2E2F447269766572732F53544D333242
:101CB000463478785F48414C5F4472697665722F8C
:101CC0005372632F73746D3332663478785F686152
:101CD0006C5F666C6173682E63000000103C02400C
:101CE00070B50446A0F100600D46B0F5002F09D391
:101CF0000C482044B0F5047F04D340F287210AA0A9
:101D000004F0AEFF174A106820F4407010601068AD
:101D100040F400701060106840F001001060256011
:101D200070BD0000008800E02E2E2F447269766599
:101D300072732F53544D3332463478785F48414C98
:101D40005F4472697665722F5372632F73746D33BB
:101D500032663478785F68616C5F666C6173682E98
:101D600063000000103C024070B50F49044600209B
:101D7000C86101F027F806460C4D09E0601C07D049
:101D800024B101F01FF8801BA04201D9032070BDCF
:101D90002868C003F2D42868C00701D00120286059
:101DA0002868002070BD0000A00800200C3C024004
:101DB00001460020A1F100634FF48042934204D316
:101DC00014480844904201D2012070471248084448
:101DD000904201D20220704710480844904201D23C
:101DE000032070470E480844B0F5803F01D204201C
:101DF00070470C480A184FF40030824201D2052087
:101E00007047094A1144814201D2062070470720D9
:101E10007047000000C0FFF70080FFF70040FFF7A9
:101E20000000FFF70000FEF70000FCF770B50400AB
:101E30007ED0A4492068884207D0A349884204D0B4
:101E400040F21D11A1A004F00BFF207E30B101284B
:101E500004D04FF48F719DA004F002FF607E30B17A
:101E6000012804D040F21F1198A004F0F9FEA07ED2
:101E700030B1012804D04FF4907194A004F0F0FE2A
:101E8000E07E30B1012804D040F221118FA004F08F
:101E9000E7FE207F30B1012804D04FF491718BA070
:101EA00004F0DEFE607F30B1012804D040F223113F
:101EB00086A004F0D5FEA06868B1B0F1804F0AD0CA
:101EC000B0F1004F07D0B0F1404F04D04FF4927101
:101ED0007EA004F0C5FEE06868B1B0F1807F0AD052
:101EE000B0F1007F07D0B0F1407F04D040F225115F
:101EF00076A004F0B5FE206998B3B0F5803F30D0ED
:101F0000B0F5003F2DD0B0F5403F2AD0B0F5802F7E
:101F100027D0B0F5A02F24D0B0F5C02F21D0B0F538
:101F2000E02F1ED0B0F5002F1BD0B0F5102F00E031
:101F300041E016D0B0F5202F13D0B0F5302F10D0DF
:101F4000B0F5402F0DD0B0F5502F0AD0B0F5602F6E
:101F500007D0B0F5702F04D04FF493715BA004F05C
:101F60007FFE6069C8B1B0F5801F16D0B0F5001FC4
:101F700013D0B0F5401F10D0B0F5800F0DD0B0F5E4
:101F8000A00F0AD0B0F5C00F07D0B0F5E00F04D015
:101F900040F227114DA004F063FE6068401EB0F5CA
:101FA000806F04D34FF4947148A004F059FE94F864
:101FB000200010B104E0012070BD204600F0A2F81E
:101FC0002068016841F00101016000F0FBFE054658
:101FD000052604E000F0F6FE401B0A2811D8206810
:101FE0004068C007F6D02068016821F00201016056
:101FF00000F0E8FE05460BE000F0E4FE401B0A2876
:1020000006D9606A40F40030606284F82060D2E74C
:10201000206840688007EFD4207E0128206801688E
:102020003DD021F080010160607E012820680168B8
:1020300038D021F040010160A07E012820680168AD
:1020400033D021F020010160E07E01282068016882
:102050002ED041F010010160207F01282068016826
:1020600029D021F008010160607F01282068016803
:1020700024D021F004010160D4E902010843D4E92D
:102080000412114308436168491E08432168C8616E
:1020900000206062012084F82000002070BD41F023
:1020A0008001C0E741F04001C5E741F02001CAE7E7
:1020B00021F01001CFE741F00801D4E741F004011D
:1020C000D9E7000000640040006800402E2E2F4435
:1020D0007269766572732F53544D33324634787873
:1020E0005F48414C5F4472697665722F5372632F6B
:1020F00073746D3332663478785F68616C5F6361E6
:102100006E2E6300F0B587B0044614216846FEF7D2
:1021100044FB2E4B2E48DFF8B0E01968D4F800C01D
:102120002B4A02250326092710300024491CF445B8
:1021300019D11960012907D1016841F000710160CE
:10214000006800F000700590106840F00100106019
:102150001068694600F0010005904FF4C050CDE9C9
:1021600000051C4828E0DFF870E0F44529D1D0F8DC
:1021700000C04CF0806CC0F800C0D0F800C001294D
:102180000CF0806CCDF814C0196007D1016841F0E3
:1021900000710160006800F000700590106840F068
:1021A000020010601068694600F0020005904FF4CC
:1021B0004050CDE90005094802AB83E8D00000F0AB
:1021C0002DFC07B0F0BD0000006400401C010020A1
:1021D0003038024000000240006800400004024025
:1021E0002DE9F0410446876D00F0ECFD064694F8B9
:1021F00035000025022806D08020606584F8345020
:102200000120BDE8F0812068016821F0160101601D
:102210002068416921F080014161206C08B9A06CFF
:1022200020B12068016821F0080101602068016880
:1022300021F0010101600CE000F0C4FD801B0528C5
:1022400007D920206065032084F8350084F83450D5
:10225000D7E720680068C007EED194F85C103F20F3
:102260008840B860012084F8350084F8345000209C
:10227000C7E790F83510022903D08021416501207D
:102280007047052180F835100068016821F00101D0
:1022900001600020704700002DE9F84304464FF02C
:1022A0000009CDF8009063484FF41651A56D006801
:1022B000B0FBF1F72E6894F85C10082000FA01F1E9
:1022C00031420FD021680A6852070BD50A6822F004
:1022D00004020A6094F85C108840A860606D40F0C9
:1022E0000100606594F85C104FF0010808FA01F0F5
:1022F000304208D021684969090604D5A860606D9C
:1023000040F00200606594F85C1004208840304280
:1023100008D021680968890704D5A860606D40F07D
:102320000400606594F85C1010208840304218D09A
:1023300021680968090714D5A86020680168490365
:1023400004D50068000308D5A16C07E00168C90541
:1023500003D4016821F008010160216C09B1204615
:10236000884794F85C1020208840304231D02168A2
:102370000968C9062DD5A86094F83500052820689D
:10238000016806D0490347D5006800031DD4616C7D
:102390001CE021F0160101602068416921F08001F4
:1023A0004161206C08B9A06C20B12068016821F05F
:1023B0000801016094F85C103F208840A86084F810
:1023C000358084F83490216D1FE0E16B09B120461F
:1023D0008847606D00282BD0606DC00714D00520A1
:1023E00084F835002068016821F00101016000983F
:1023F000401C0090B84203D820680068C007F6D19E
:1024000084F8358084F83490E16C002910D001B054
:102410002046BDE8F04308470168C905D5D40168E6
:1024200021F01001016084F8358084F83490CCE705
:10243000BDE8F883340100202DE9F041044600F0A6
:10244000C1FC0546002C7CD0A249206888423ED0C1
:10245000A049183188423AD09E493031884236D05E
:102460009C494831884232D09A49603188422ED006
:102470009849783188422AD096499031884226D0AE
:102480009449A831884222D0934988421FD092496A
:10249000183188421BD090493031884217D08E497C
:1024A0004831884213D08C49603188420FD08A4924
:1024B000783188420BD088499031884207D08649CC
:1024C000A831884203D0B72184A004F0C9FB60681A
:1024D000C0B1B0F1007F15D0B0F1806F12D0B0F173
:1024E000C06F0FD0B0F1006F0CD0B0F1206F09D0E9
:1024F000B0F1406F06D0B0F1606F03D0B82177A083
:1025000004F0AEFBA06838B1402805D0802803D085
:10251000B92172A004F0A4FBE068B0F5007F04D0FC
:1025200018B1BA216DA004F09BFB2069B0F5806F53
:1025300004D018B1BB2169A004F092FB606958B1C6
:1025400000E071E0B0F5006F06D0B0F5805F03D019
:10255000BC2162A004F084FBA06948B1B0F5005F23
:1025600006D0B0F5804F03D0BD215CA004F078FB0D
:10257000E06940B1B0F5807F05D0202803D0BE21AE
:1025800056A004F06DFB206A60B1B0F5803F09D021
:10259000B0F5003F06D0B0F5403F03D0BF214FA0BB
:1025A00004F05EFB606A002832D0042806D0C02107
:1025B0004AA004F055FB606A002829D0A06A48B1FF
:1025C000012807D0022805D0032803D0C52143A045
:1025D00004F046FBE06A60B1B0F5000F09D0B0F13D
:1025E000807F06D0B0F1C07F03D0C6213BA004F0AD
:1025F00037FB206B60B1B0F5001F09D0B0F5800F3C
:1026000006D0B0F5C00F03D0C72134A004F028FBDA
:10261000022084F83500002684F8346020680168C0
:1026200021F0010101600EE00120BDE8F08100BF52
:1026300000F0C8FB401B052805D920206065032059
:1026400084F83500F1E720680068C007F0D12268FF
:10265000116830480140D4E901031843D4E9033537
:102660002B43184363691843A3691843E36918436C
:10267000236A18430843616A042903D1D4E90B1380
:1026800019430843106020684069656A20F007001C
:1026900029460543012704290CD1A06A0543E06AB5
:1026A00040B12046FFF724F920B14020606584F84E
:1026B0003570B9E7206845612046FFF705F994F8C1
:1026C0005C203F2191408160666584F83570002070
:1026D000ABE7000010600240106402402E2E2F4431
:1026E0007269766572732F53544D3332463478785D
:1026F0005F48414C5F4472697665722F5372632F55
:1027000073746D3332663478785F68616C5F646DC2
:10271000612E63003F8010F02DE9F04789460446A2
:10272000876D0025581E4FF6FF711E469046884261
:1027300004D340F2CB111CA004F092FA94F83400B8
:1027400001280DD0012084F8340094F835100020C1
:10275000012907D084F8340002252846BDE8F08717
:102760000220FBE7022184F83510606533464246BB
:1027700049462046FFF7E6F894F85C103F20884071
:10278000B8602068016841F016010160206C20B13A
:102790002068016841F0080101602068016841F08B
:1027A00001010160D9E700002E2E2F447269766581
:1027B00072732F53544D3332463478785F48414C0E
:1027C0005F4472697665722F5372632F73746D3331
:1027D00032663478785F68616C5F646D612E630087
:1027E00070B5044600F0EEFA0546601C02D00448BD
:1027F0000078044400F0E6FA401BA042FAD370BD12
:10280000280100202DE9F04704462E480F46017E9E
:10281000012912D0012181460176206828B10128C2
:1028200003D0A92128A004F01BFA4CF2503A5046DC
:10283000FFF79AFA060003D03EE00220BDE8F087D9
:102840004FF0FF3038602068DFF8BC8001280BD0E3
:10285000D4E90210401801D0082803D9C1211AA0D8
:1028600004F0FEF9A56820E0207C6168FFF720F9FC
:102870005046FFF779FAD8F80010064621F0040117
:10288000C8F8001016E0217C2846FFF781F8504672
:10289000FFF76AFAD8F80010060021F0FA01C8F82C
:1028A000001001D03D6005E06D1CD4E90210084421
:1028B000A842E8D8FFF7D2F8002189F8181030466E
:1028C000BCE70000A00800202E2E2F447269766518
:1028D00072732F53544D3332463478785F48414CED
:1028E0005F4472697665722F5372632F73746D3310
:1028F00032663478785F68616C5F666C6173685FBC
:1029000065782E6300000000103C02400348016817
:1029100041F000410160002070470000103C02407F
:102920002DE9F047214E05461446307E1F46894664
:10293000012813D0012030764DB1012D07D0022D92
:1029400005D0032D03D0A22119A004F089F94CF27F
:1029500050384046FFF708FA18B114E00220BDE8ED
:10296000F0879DB1012D16D0022D19D022463B468D
:102970004846FFF729F94046FFF7F6F91B490A6870
:1029800022F001020A6000213176E8E7E1B2484610
:10299000FFF7D8F8EFE7A1B24846FFF75DF9EAE79D
:1029A00021464846FFF79CF9E5E70000A008002013
:1029B0002E2E2F447269766572732F53544D333225
:1029C000463478785F48414C5F4472697665722F6F
:1029D0005372632F73746D3332663478785F686135
:1029E0006C5F666C6173682E63000000103C0240EF
:1029F000074900200A68002A09DA054A054B0C3A03
:102A00001360054B13600968002900DA0120704744
:102A1000103C024023016745AB89EFCD2DE9F84F0B
:102A2000DFF874B20D460446584518D09B488442DE
:102A300015D09B48844212D09A4884420FD09A48BD
:102A400084420CD09948844209D09948844206D0E7
:102A50009848844203D0AC2197A004F001F928687B
:102A60000104090C01D0000C03D0AD2192A004F0A8
:102A7000F7F86868F8B101281DD011281BD002288A
:102A800019D0122817D0B0F5881F14D0B0F5041F44
:102A900011D0B0F5441F0ED0B0F5901F0BD0B0F59B
:102AA000081F08D0B0F5481F05D0032803D0AE2179
:102AB00081A004F0D5F800264FF0010A4FF0030979
:102AC0000AFA06F02F688046074047457ED12879EC
:102AD00000F00300012801D002281DD1E86848B1A8
:102AE000012807D0022805D0032803D0C02172A0F6
:102AF00004F0B6F8A068720009FA02F18843E968A8
:102B000091400143A1606068297920EA0800C1F37F
:102B10000011B140014361602879C043800712D0A1
:102B2000A86838B1012805D0022803D0D12162A0BD
:102B300004F096F8E168720009FA02F08143A8688F
:102B400090400843E060287900F0030002282ED16D
:102B50002869F8B109281DD001281BD0022819D0F6
:102B6000032817D0042815D0052813D0062811D023
:102B700007280FD008280DD00A280BD00B2809D021
:102B80000C2807D00D2805D00F2803D0DE214AA03D
:102B900004F066F8F00804EB8002106A7107CB0EAF
:102BA0000F219940884329699940014311622068A7
:102BB000720009FA02F18843297901F0030191407A
:102BC00001432160686810F4403F00E05EE05DD0A2
:102BD0004848016841F480410160006826F0030123
:102BE00000F48040009044480A18D2F80818B00752
:102BF000030F0F20984081435C4501D100201EE067
:102C00002648844201D1012019E02548844201D19F
:102C1000022014E02348844201D103200FE022481F
:102C2000844201D104200AE02048844201D10520D9
:102C300005E01F48844201D1062000E007209840AB
:102C40000843C2F808082D4908686A68B843D202E8
:102C500000D5384308602949091D08686A68B843E7
:102C6000920200D5384308602449091F08686A6841
:102C7000B843920300D538430860204908390868F2
:102C80006A68B843D20300D538430860761C102E1A
:102C9000FFF416AFBDE8F88F0000024000040240C8
:102CA00000080240000C02400010024000140240E4
:102CB00000180240001C02402E2E2F4472697665D7
:102CC00072732F53544D3332463478785F48414CF9
:102CD0005F4472697665722F5372632F73746D331C
:102CE00032663478785F68616C5F6770696F2E63F5
:102CF000000000004438024000300140083C014020
:102D000070B50C00054604D14FF4BE7103A003F06A
:102D1000A7FF2869204000D0012070BD2E2E2F442F
:102D20007269766572732F53544D33324634787816
:102D30005F48414C5F4472697665722F5372632F0E
:102D400073746D3332663478785F68616C5F677076
:102D5000696F2E630000000070B515460C00064632
:102D600004D140F29D1108A003F07AFF45B1012D76
:102D700004D04FF4CF7104A003F072FFB46170BDB2
:102D80002004B06170BD00002E2E2F44726976655C
:102D900072732F53544D3332463478785F48414C28
:102DA0005F4472697665722F5372632F73746D334B
:102DB00032663478785F68616C5F6770696F2E6324
:102DC00000000000014880687047000028010020D2
:102DD0000248816802781144816070472801002010
:102DE0000B4810B5016841F400710160016841F4BD
:102DF00080610160016841F480710160032000F08E
:102E0000C3F80F2000F006F800F024F8002010BDF1
:102E1000003C024070B50D4D04464FF47A7128789D
:102E2000B1FBF0F00A490968B1FBF0F000F096FE42
:102E300048B9102C07D200222146501E00F054F849
:102E400000206C6070BD012070BD000028010020D2
:102E5000340100200A4808B5016841F4804101604E
:102E6000006800F4804000900548001F016841F0B0
:102E700080510160006800F08050009008BD0000A3
:102E80004438024010B5040003D5BC2107A003F06C
:102E9000E7FE002C09DB04F01F01012088406109D6
:102EA000890001F1E021C1F8000110BD2E2E2F4450
:102EB0007269766572732F53544D33324634787885
:102EC0005F48414C5F4472697665722F5372632F7D
:102ED00073746D3332663478785F68616C5F636FEA
:102EE000727465782E63000070B515460C46064670
:102EF000102A03D3A82114A003F0B2FE102C03D390
:102F0000A92111A003F0ACFE1E480068C0F3022303
:102F1000C3F107022046042A00D90422191D0729FB
:102F200001D2002300E0DB1E012404FA02F1491E55
:102F3000014099409C40641E2C4021433046BDE82E
:102F4000704003F0D4BC00002E2E2F4472697665C9
:102F500072732F53544D3332463478785F48414C66
:102F60005F4472697665722F5372632F73746D3389
:102F700032663478785F68616C5F636F727465780D
:102F80002E6300000CED00E010B5044607280BD0BE
:102F9000062C09D0052C07D0042C05D0032C03D017
:102FA000902108A003F05CFE154904F007020868B0
:102FB0004FF6FF03184040EA0220124A104308600F
:102FC00010BD00002E2E2F447269766572732F5348
:102FD000544D3332463478785F48414C5F447269CF
:102FE0007665722F5372632F73746D333266347843
:102FF000785F68616C5F636F727465782E63000040
:103000000CED00E00000FA052DE9F84317480168CF
:1030100041F0805101600068154F00F0805001269A
:1030200000903E64FFF7CEFE05464FF47A78114CCF
:1030300005E000BFFFF7C6FE401B40450DD86068A5
:10304000C003F7D57E64FFF7BDFE0546464607E0A0
:10305000FFF7B8FE401BB04202D90320BDE8F88359
:1030600060688003F4D50020F8E700004038024093
:1030700000000E42007000402DE9F0470C460500AC
:103080007ED02868401E0E2804D940F25A2182A022
:1030900003F0E6FD14B3012C20D0022C1ED0032C2B
:1030A0001CD0042C1AD0052C18D0062C16D0072CB6
:1030B00014D0082C12D0092C10D00A2C0ED00B2CB6
:1030C0000CD00C2C0AD00D2C08D00E2C06D00F2CB6
:1030D00004D040F25B2170A003F0C2FDDFF8F08164
:1030E000D8F80000E7B200F00F00A04207D288F83D
:1030F0000070D8F8000000F00F00A04240D128680E
:10310000744E810729D5400703D5306840F4E0505C
:1031100030602878000703D5306840F460403060A4
:10312000A868A0B1802812D0902810D0A0280ED076
:10313000B0280CD0C0280AD0D02808D0E02806D06B
:10314000F02804D040F27E2153A003F089FD3068BE
:10315000A96820F0F000084330602878C00743D009
:10316000DFF870916868A9F1080998B1012822D0A8
:10317000022824D0032822D040F2852146A000E076
:103180003FE003F06DFD6868012814D0022816D0D6
:10319000032814D0D9F800008007002831DA3068FD
:1031A000696820F0030008433060FFF70BFE81469A
:1031B00041F2883A11E0D9F800008003EDE7D9F830
:1031C00000008001E9E700BFFFF7FCFDA0EB09016B
:1031D000514502D90320BDE8F0873068696800F0E6
:1031E0000C00B0EB810FEFD1D8F80010404601F091
:1031F0000F01A14207D90770006800F00F00A0423C
:1032000001D00120E7E728784FF4805440074FF4BD
:10321000A0574FF4C0584FF4E05914D5E86860B196
:10322000A0420AD0B84208D0404506D0484504D054
:1032300040F2C32118A003F013FD3068E96820F4C0
:10324000E050084330602878000715D5286960B140
:10325000A0420AD0B84208D0404506D0484504D024
:1032600040F2CA210CA003F0FBFC3068296920F46D
:10327000604040EAC100306000F054F83168164AFE
:10328000C1F30311515CC840144908601448006838
:10329000FFF7C0FD00209EE72E2E2F447269766551
:1032A00072732F53544D3332463478785F48414C13
:1032B0005F4472697665722F5372632F73746D3336
:1032C00032663478785F68616C5F7263632E630086
:1032D000003C024008380240CC8A0008340100203B
:1032E0002C0100200448054900680968044AC1F31C
:1032F0008221515CC84070473401002008380240E8
:10330000DC8A00080448054900680968044AC1F3DA
:103310004231515CC84070473401002008380240F7
:10332000DC8A0008224810B5006810F00C02214821
:1033300015D02149042A11D01D4C241F082A0FD072
:103340000C2A0CD12268236802F03F025B0221D5CF
:103350002068C0F38810A0FB010120E0084610BDE2
:103360002268236802F03F025B0205D52068C0F3A3
:103370008810A0FB010104E02168C1F38811A1FBC2
:1033800000010023FCF7BFFF2168C1F30141491C84
:1033900049000AE02168C1F38811A1FB0001002364
:1033A000FCF7B1FF2168C1F30271B0FBF1F010BD71
:1033B000083802400024F40040787D012DE9F84FE0
:1033C00004007DD020680F2804D94FF45161FDA07E
:1033D00003F046FCDFF828B42078ABF10407C007FF
:1033E000A7F104055ED060684FF480364FF4A02842
:1033F00040B1B04206D0404504D040F61551F1A08E
:1034000003F02EFCDBF800105846C1F381010129BE
:103410000FD00168C1F38101022902D13968490244
:1034200007D40068C0F38100032809D1386840023E
:1034300006D52868800335D560680028C1D031E002
:103440006068B04203D1286840F480300CE0404509
:10345000286803D140F480202860F4E720F480300D
:103460002860286820F480202860606868B1FFF731
:10347000A9FC064605E000BFFFF7A4FC801B6428FA
:103480007ED828688003F7D50CE0FFF79BFC064642
:1034900005E000BFFFF796FC801B6428F0D8286881
:1034A0008003F7D42078DFF85C9380074FF0000AA0
:1034B00056D5E06840B1012806D040F64D5100E0F5
:1034C000A4E0C0A003F0CCFB20691F2804D940F67B
:1034D0004E51BCA003F0C4FBDBF80010584611F0BD
:1034E0000C0F0FD00168C1F38101022902D13968A4
:1034F000490207D50068C0F38100032809D1386864
:10350000400206D42868800714D5E06801287DD1E0
:1035100010E0E068B0B10120C9F80000FFF752FCEC
:10352000064604E0FFF74EFC801B0228A8D8286856
:103530008007F7D52868216920F0F80040EAC1002B
:1035400028600DE0C9F800A0FFF73CFC064604E047
:10355000FFF738FC801B022892D828688007F7D430
:103560002078000731D5DFF89882A74E606908F10E
:103570006C08D8B1012808D040F6945191A000E021
:1035800057E103F06DFB606980B101203060FFF707
:1035900019FC064605E000BFFFF714FC801B02285B
:1035A000C4D8D8F800008007F6D50EE0C6F800A011
:1035B000FFF708FC064604E0FFF704FC801B022826
:1035C000B4D8D8F800008007F6D42078400775D525
:1035D000A0684FF0000840B1012806D0052804D0AB
:1035E0004FF45C6177A003F03BFB854838300068FE
:1035F000C0000DD482483830016841F0805101602C
:1036000000684FF0010800F0805000E044E10090B5
:103610007E4E3068C00510D4306840F48070306051
:10362000FFF7D0FB009005E0FFF7CCFB0099401AB4
:10363000022891D83068C005F6D5714EA06868366A
:1036400001280FD00528306810D020F0010030602C
:10365000306820F004003060A068B8B1FFF7B2FB1A
:1036600000900FE0306840F00100F4E740F0040003
:103670003060F7E7FFF7A6FB0099411A41F2883066
:1036800081428DD830688007F4D50EE0FFF79AFBB1
:10369000009007E0FFF796FB0099411A41F288304D
:1036A00081428DD830688007F4D4B8F1000F05D07E
:1036B00053483830016821F080510160A06900282A
:1036C0007ED0012809D0022807D040F603613DA032
:1036D00003F0C6FAA0690028F2D0DBF80000C0F3BE
:1036E00081000228A0696CD0022805D0C9F860A02A
:1036F000FFF768FB04469FE0E06938B1B0F5800F42
:1037000004D040F60C612FA003F0AAFA206A3F28EB
:1037100004D940F60D612BA003F0A2FA606A32389A
:10372000B0F5BF7F04D940F60E6126A003F098FAE9
:10373000A06A02280AD0042808D0062806D0082843
:1037400004D040F60F611FA003F08AFAE06A801EE1
:103750000D2804D94FF461611AA003F081FA206B9F
:10376000801E052804D940F6116116A003F078FAEE
:10377000C9F860A0FFF726FB064604E0FFF722FB2E
:10378000801B022855D828688001F7D4F4E9070186
:103790000843E1681E4A490802EB0141A26841EA78
:1037A00082110843217C40EA0160217D40EA0170DA
:1037B00038600120C9F86000FFF704FB04462EE0E2
:1037C0006CE03DE02E2E2F447269766572732F53A4
:1037D000544D3332463478785F48414C5F447269C7
:1037E0007665722F5372632F73746D33326634783B
:1037F000785F68616C5F7263635F65782E63000059
:103800000838024000004742800E474200700040E6
:103810000000FFFFFFF7D6FA001B022809D828682E
:103820008001F7D53AE000BFFFF7CCFA001B022871
:1038300002D90320BDE8F88F28688001F4D42DE078
:103840000128F7D03868E26900F48001914223D161
:10385000226A00F03F0191421ED147F6C071626AB0
:103860000140B1EB821F17D1A26A4FF0FF3300F481
:10387000403103EB5202B1EB024F0DD194F82C20F2
:1038800000F07061B1EB026F06D194F8301000F0D7
:10389000E040B0EB017F01D00120CBE70020C9E779
:1038A00070B504007ED08149206888420DD08049DF
:1038B00088420AD07F49884207D07F49884204D095
:1038C0004FF4A0717DA003F0CBF960684FF48276CD
:1038D00030B1B04204D040F2411178A003F0C0F9F9
:1038E000A06850B1B0F5806F07D0B0F5004F04D09C
:1038F0004FF4A17171A003F0B3F9E068B0F5006F67
:1039000005D020B140F243116CA003F0A9F9A069E1
:10391000B0F5007F08D038B1B0F5802F04D04FF457
:10392000A27166A003F09CF9E06990B1082810D05C
:1039300010280ED018280CD020280AD0282808D00B
:10394000302806D0382804D040F245115BA003F09F
:1039500087F9206A30B1802804D04FF4A37157A0B2
:1039600003F07EF9606A002548B3102806D040F2C3
:10397000471152A003F074F9606A00B3E069A0B186
:10398000082812D0102810D018280ED020280CD0CB
:1039900028280AD0302808D0382806D040F25911FB
:1039A00046A000E009E003F05BF925616561A562CE
:1039B00094F85100002830D034E0012070BD206917
:1039C00030B1022804D04FF4A5713CA003F048F9AF
:1039D000606930B1012804D040F24B1137A003F0E8
:1039E0003FF96068B04216D1E0690028DFD00828AE
:1039F000DDD01028DBD01828D9D02028D7D028280F
:103A0000D5D03028D3D03828D1D040F24F112BA0B8
:103A100003F026F9CBE7E561C9E784F8505020466A
:103A200000F068F8022084F851002068016821F055
:103A300040010160A088218900F4827001F40441F2
:103A40000843A18901F400610843217C01F00201CF
:103A50000843217D01F001010843218B01F400712D
:103A60000843217F01F03801084394F8201001F049
:103A700080010843218D01F400510843216808604A
:103A8000A069042101EA104094F8241001F010010B
:103A90000843216848602068C16921F40061C16160
:103AA0006565012084F85100002070BD00300140A0
:103AB00000380040003C0040003401402E2E2F44CE
:103AC0007269766572732F53544D33324634787869
:103AD0005F48414C5F4472697665722F5372632F61
:103AE00073746D3332663478785F68616C5F7370BD
:103AF000692E630010B586B0044614216846FCF7B1
:103B00004CFE13492068884220D1124800210268E7
:103B100042F480520260006800F4805005900D4825
:103B20001438026842F001020260006800F00100EF
:103B30000590F02000900220CDE9010103200390C0
:103B40000520049069460448FEF768FF06B010BDE2
:103B500000300140443802400000024010B5401ED1
:103B6000B0F1807F01D3012010BD4FF0E0246061EF
:103B70000F21601702F0BBFE0020A061072020612A
:103B8000002010BD2DE9F05F044600683A4E3B4F1F
:103B9000DFF8EC80DFF8EC90DFF8ECA00D464FF09A
:103BA000804BB04215D0584513D0B84211D0404593
:103BB0000FD048450DD04FEAB641884209D033496D
:103BC000884206D0504504D040F2B17130A003F0D5
:103BD00047F8286890B1102810D020280ED030283F
:103BE0000CD040280AD0502808D0602806D0702871
:103BF00004D040F2B27126A003F032F86868802841
:103C000005D020B140F2B37121A003F029F894F857
:103C10003C0001282DD0012284F83C20022084F8A9
:103C20003D00216848688B6820F0700C286840EAE5
:103C30000C0048602068B0420FD058450DD0B84203
:103C40000BD0404509D0484507D0504505D01F4905
:103C5000884202D01E49884204D1696823F080035B
:103C60001943816084F83D20002084F83C00BDE8C1
:103C7000F09F0220FBE7000000000140000400402C
:103C800000080040000C0040000401400014004007
:103C90002E2E2F447269766572732F53544D333232
:103CA000463478785F48414C5F4472697665722F7C
:103CB0005372632F73746D3332663478785F686142
:103CC0006C5F74696D5F65782E6300000040014091
:103CD0000018004010B5040058D03F4920688842C1
:103CE0002BD0B0F1804F28D03C49884225D03C49A8
:103CF000884222D03B4988421FD03B4988421CD091
:103D00003A49884219D03A49884216D039498842FE
:103D100013D03949884210D0384988420DD03849EB
:103D200088420AD03749884207D03749884204D0B0
:103D300040F2131135A002F093FFA06860B1102883
:103D40000AD0202808D0402806D0602804D04FF49C
:103D50008A712EA002F084FF206950B1B0F5807FF7
:103D600007D0B0F5007F04D040F2151127A002F073
:103D700077FFA06930B1802804D04FF48B7123A065
:103D800002F06EFF94F83D0010B107E0012010BD75
:103D9000002084F83C00204600F054F8022084F80B
:103DA0003D00211D206802F031F9012084F8460011
:103DB00084F83E0084F83F0084F8400084F8410015
:103DC00084F8420084F8430084F8440084F84500F5
:103DD00084F83D00002010BD0000014000040040B8
:103DE00000080040000C004000100040001400409B
:103DF00000040140004001400044014000480140EF
:103E000000180040001C0040002000402E2E2F44CF
:103E10007269766572732F53544D33324634787815
:103E20005F48414C5F4472697665722F5372632F0D
:103E300073746D3332663478785F68616C5F74696F
:103E40006D2E630008B50C4A01680C48914207D1F9
:103E5000016841F010010160006800F0100009E005
:103E6000074A914207D1016841F0200101600068D2
:103E700000F02000009008BD0010004040380240D3
:103E80000014004070477047F8B5016804460868A0
:103E9000CA684B6910F00F0F4FF0000559D003F0BE
:103EA000010602F49077374365D0C10705D0D105EC
:103EB00003D5216C41F001012164410705D5D907E3
:103EC00003D0216C41F002012164810705D5D90797
:103ED00003D0216C41F004012164010707D502F0F1
:103EE0002001314303D0216C41F008012164216C91
:103EF00000293AD0800604D5900602D5204602F06B
:103F000099F920684069216CC0F38010090700D43A
:103F100060B3204602F059F920684069400621D577
:103F20002068143050E8001F21F0400140E80012E2
:103F3000002AF5D1A06BA8B16C490165A06BFEF712
:103F400098F9002811D0A06B016D01B0BDE8F040D8
:103F5000084783060FD593060DD52046BDE8F840E7
:103F600002F068B92046FFF78EFFF8BD2046FFF744
:103F70008AFF2564F8BD266B2023012E79D1C60661
:103F800077D5D60675D50868486800904869400618
:103F900040D5A16B086840680004000CEAD0A28DEF
:103FA0008242E7D9E085C869B0F5807F2DD02068CE
:103FB0000C3050E8001F21F4807140E80012002A04
:103FC000F5D12068143050E8001F21F0010140E8CD
:103FD0000012002AF5D12068143050E8001F21F0AB
:103FE000400140E80012002AF5D184F83E302563F4
:103FF00020680C3050E8001F21F0100140E800124A
:10400000002AF5D1A06BFEF7EBF8A08DE18D401AE8
:1040100081B229E0A08DE18D401A81B2E08D0028A7
:10402000A8D00029A6D020680C3050E8002F22F438
:10403000907240E80026002EF5D12068143050E838
:10404000002F22F0010240E80026002EF5D184F86E
:104050003E30256320680C3050E8002F22F010021B
:1040600040E80023002BF5D12046FFF70BFFF8BDF9
:10407000FFE705062BD5150629D594F83D00212824
:10408000F5D1A068B0F5805F01D12069B0B1206A98
:10409000411C2162216800784860E08C401E0004C9
:1040A000000CE084E3D12068C16821F08001C16088
:1040B0002068C16841F04001C160D8E7206A0088EB
:1040C000C0F308004860206A801C2062E5E74006D3
:1040D000CDD55006CBD5CA68204622F04002CA6032
:1040E00084F83D3000F0B8F9C1E70000D560000861
:1040F0002DE9F041040029D0A0693E4900283E4A3C
:104100003E4B3F4D3F4E404F206822D0884210D05A
:1041100090420ED098420CD0A8420AD0B04208D0AB
:10412000B84206D040F2731138A002F099FDA069A0
:1041300000B3A069B0F5807F1CD0B0F5007F19D026
:10414000B0F5407F16D04FF4BA7110E00120BDE801
:10415000F08188420ED090420CD098420AD0A842FA
:1041600008D0B04206D0B84204D04FF4BC7127A0AA
:1041700002F076FDA06838B1B0F5805F04D04FF44E
:10418000BD7122A002F06CFDE06938B1B0F5004FBE
:1041900004D040F27B111DA002F062FD94F83D00B6
:1041A000002520B984F83C50204600F04DF824202A
:1041B00084F83D002068C16821F40051C1602046A8
:1041C00002F098F82068016921F4904101612068AB
:1041D000416921F02A0141612068C16841F4005120
:1041E000C1602564202084F83D0084F83E00002052
:1041F000ADE70000001001400044004000480040CE
:10420000004C004000500040001401402E2E2F446E
:104210007269766572732F53544D33324634787811
:104220005F48414C5F4472697665722F5372632F09
:1042300073746D3332663478785F68616C5F756172
:1042400072742E63000000002DE9F04186B006462E
:1042500014216846FCF7A1FADFF800C13168404834
:104260000222032307273F4D0024614556D13C49D4
:104270001431D1F800C04CF0100CC1F800C009682E
:1042800001F010010591016841F001010160006831
:10429000694600F00100059058028DE81500CDE94F
:1042A00003372846FEF7BAFB304D2F484FF0006722
:1042B000E5E8020740204FF48068A5E811012B488B
:1042C00045F81449AC61EC612C626C62FEF7B4F8FD
:1042D00008B1FDF74DFB7563AE63244D2248603590
:1042E00078382860C5E90174C5E903486C61AC61A0
:1042F000EC612C6228466C62FEF79EF808B1FDF76F
:1043000037FBB563002211462520AE63FEF7ECFDB6
:104310002520FEF7B7FD06B0BDE8F081144EB1428E
:10432000F9D10F4910310E6846F400360E60096865
:1043300001F400310591016841F00101016000685C
:10434000694600F0010005900C208DE81500CDE9CC
:1043500003372846FEF762FBDDE70000001001404E
:104360003038024000000240B8640240E0070020FC
:104370000044004090F83E30202B0ED159B152B18C
:1043800090F83C30012B08D0012380F83C3000230A
:10439000036302F07FB80120704702207047704726
:1043A000704700002DE9F843044690F83D001F4691
:1043B00016460D4620284CD1C5B1BEB194F83C003C
:1043C000012846D0012084F83C004FF00008C4F8D2
:1043D0004080212084F83D00FEF7F4FCA68481464D
:1043E000E684A068B0F5805F03D004E00120BDE85A
:1043F000F883206928B12E465FF0000584F83C80E0
:104400000EE00026FAE78021204602F08DF8A0B9E0
:10441000AEB116F8010B21684860E08C401EE084C4
:10442000E08C4B464FF0000200970028EBD14FF094
:104430004001204602F078F830B10320D7E735F884
:10444000020BC0F30800E6E7202084F83D000020BE
:10445000CDE70220CBE7000000680349884202D183
:10446000024901200870704700100140200100201F
:10447000FEE7000010B51049044605200880A0881A
:10448000112281B2206802F099FEA089112281B226
:10449000A06802F093FEA088012281B22068FEF796
:1044A0005BFCA089012281B2A068FEF755FC60691F
:1044B000BDE8104002F010BE000000202DE9FF4FC3
:1044C0008DB09846DDE91A763146304604F0D2F8D0
:1044D00005463946084604F0CDF8044641460846EC
:1044E00004F0C8F8214603F083FF294603F080FF5B
:1044F00003F052FF03F0D4F903F00EFA044601462C
:10450000404603F0DDFF10902146384603F0D8FF07
:1045100083462146304603F0D3FF8246FE480168B9
:10452000FE4801910068049004F0A4F80546FC4898
:104530000168FC48039100910068044604F09AF871
:10454000294604F06DF9012104F07EFA0746DDE901
:10455000001004F08FF805462146049804F08AF80C
:10456000294603F045FF012104F06EFA0099064642
:10457000084604F07FF801998146084604F07AF86D
:1045800080462146084604F075F804990546084619
:1045900004F070F8294604F043F9414604F040F96C
:1045A000494603F025FF05463146504604F062F8BF
:1045B00080462946584604F05DF8414604F030F93B
:1045C00081462946109804F055F80546394650466C
:1045D00004F050F8294604F023F98046394658463D
:1045E00004F048F805463146109804F043F829468F
:1045F00004F016F98346CC48CC4990E8E0004846E0
:1046000004F038F80D9903F0F3FE294603F0F0FEAC
:104610008146C649404604F02DF80E9903F0E8FEA5
:10462000314603F0E5FE8246C049584604F022F8C0
:104630000F9903F0DDFE394603F0DAFE0646014627
:10464000009804F017F807465146019804F012F854
:10465000054684F00040494604F00CF8294604F071
:10466000DFF8394604F0DCF8DFF8C4B25F4659469B
:1046700004F000F8049903F0BBFE0546A748514634
:104680000560009803F0F6FF07903146019803F0AB
:10469000F1FF80462946484603F0ECFF414603F00F
:1046A000A7FE079904F0BCF8394603F0E3FF214662
:1046B00003F09EFE04469B4804604846009903F0C0
:1046C000D9FF00903146204603F0D4FF8046514682
:1046D000284603F0CFFF414604F0A2F8009903F00A
:1046E00087FE394603F0C6FF019903F081FE8A492F
:1046F0000746884608603946484603F0BBFF0090ED
:104700005146DFF82092204603F0B4FF0290314674
:10471000DFF808A2284603F0ADFF029903F068FE17
:10472000009904F07DF8594603F0A4FF7C4E0399EC
:1047300003F05EFE0146306003F09CFF834639467D
:10474000084603F097FF07462146084603F092FF0C
:1047500004462946084603F08DFF214603F048FE33
:10476000394603F045FE594603F042FE03F014FEBD
:1047700003F096F803F0D0F805460146DAF8000099
:1047800003F09EFE8346CAF800002946D9F80000CF
:1047900003F096FEC9F8000002902946D8F8000000
:1047A00003F08EFE0446C8F800002946306803F086
:1047B00087FE074630600121584604F045F921463E
:1047C00003F058FF04464FF040452946029803F095
:1047D00051FF394603F04EFF214603F009FE03F076
:1047E000DBFD02F005F94FF06632524B03F014FB8B
:1047F00003F092F88346D8F800000121044604F043
:1048000023F92146049003F035FF0446D9F800004F
:104810002946054603F02EFF294603F02BFF2146CB
:1048200003F0FEFF4FF07E5103F0E2FD03F0B4FD14
:1048300007460C460121DAF8000004F005F9294684
:1048400003F018FF05460498316803F013FF29466A
:1048500003F0CEFD03F0A0FD3A46234602F032FB02
:104860004FF06632334B03F0D7FA03F055F8316856
:1048700004460846039103F0FDFED8F800100746F1
:104880000846009103F0F6FED9F800100646894666
:10489000084603F0EFFEDAF8001005468846404669
:1048A00003F0E8FE294603F0A3FD314603F0B8FF0C
:1048B000394603F0B5FF03F06FFD06460D4640464E
:1048C000039903F0D7FE07464846009903F0D2FE4D
:1048D000394603F08DFD012104F0B6F803F05CFDCC
:1048E00032462B4602F0EEFA4FF06632114B03F0DF
:1048F00093FA03F011F8104E054633460C4A594618
:104900000E4802F09FFB0E493346094A08602146D3
:104910000C4802F097FB17E0200000201800002050
:10492000240000201C000020080100200000C843D3
:104930006F12833A66A64C400000A0405001002050
:104940004C0000208401002006493346064A0860D6
:104950002946064802F076FB0549086011B0BDE81B
:10496000F08F0000480000206F12833AB801002049
:10497000500000202DE9F34F674F85B00846B96815
:10498000644D049103F04CFF03F006FD634A644B51
:1049900003F042FA06460C46786803F0FDFC324606
:1049A000234602F0EBFF02F0B7FF07F1600403902B
:1049B000D4F804902846494603F032FFD4F808A002
:1049C000514603F02DFF57490860E268934682F094
:1049D00000424A6090468A60534ACA6003F0DCFC99
:1049E0004E4A4F4B03F018FA06460D46206803F076
:1049F000D3FC32462B4602F0C1FF02F08DFF02903D
:104A0000404603F0C9FC454A454B03F005FA05460C
:104A10000E46484603F0C0FC2A46334602F0AEFF7D
:104A200002F07AFF314680462E460D46504603F08E
:104A3000B3FC32462B4602F0A1FF02F06DFF824626
:104A4000584603F0A9FC394A394B02F097FF02F0AF
:104A500063FF81460399059803F0E2FE01904FF051
:104A60007E50029903F006FE054651464FF07E50F7
:104A700003F000FE834629464FF07E5003F0FAFD16
:104A80004FF07C5103F0B4FC06460146284603F083
:104A900017FD00903146584603F012FD834641460B
:104AA0004FF07E5003F0E6FD06462946009803F0DD
:104AB000E1FD029903F0AAFE20603146009803F060
:104AC000D9FD414603F0A2FE60602946584603F036
:104AD000D1FD514603F09AFEA0603146584603F0DE
:104AE000C9FD494603F092FEE060DDE9000103F0F4
:104AF000C1FD039903F07CFC786004465846019997
:104B000003F0B8FD049903F073FCB86007B02046C9
:104B1000BDE8F08F6F12833A88000020FCA9F1D223
:104B20004D62603FEC010020A69B443B7F6ABC7451
:104B3000732AD93E2DE9F34F674F85B00846B96B0C
:104B4000644D049103F06CFE03F026FC634A644B51
:104B500003F062F906460C46786B03F01DFC324602
:104B6000234602F00BFF02F0D7FE07F1700403901A
:104B7000D4F804902846494603F052FED4F808A021
:104B8000514603F04DFE57490860E268934682F0B3
:104B900000424A6090468A60534ACA6003F0FCFBB8
:104BA0004E4A4F4B03F038F906460D46206803F095
:104BB000F3FB32462B4602F0E1FE02F0ADFE02901E
:104BC000404603F0E9FB454A454B03F025F905460D
:104BD0000E46484603F0E0FB2A46334602F0CEFE7E
:104BE00002F09AFE314680462E460D46504603F0AE
:104BF000D3FB32462B4602F0C1FE02F08DFE824608
:104C0000584603F0C9FB394A394B02F0B7FE02F0AF
:104C100083FE81460399059803F002FE01904FF050
:104C20007E50029903F026FD054651464FF07E5016
:104C300003F020FD834629464FF07E5003F01AFD15
:104C40004FF07C5103F0D4FB06460146284603F0A2
:104C500037FC00903146584603F032FC834641460B
:104C60004FF07E5003F006FD06462946009803F0FB
:104C700001FD029903F0CAFD20603146009803F05F
:104C8000F9FC414603F0C2FD60602946584603F036
:104C9000F1FC514603F0BAFDA0603146584603F0DE
:104CA000E9FC494603F0B2FDE060DDE9000103F0F4
:104CB000E1FC039903F09CFB786304465846019994
:104CC00003F0D8FC049903F093FBB86307B02046C7
:104CD000BDE8F08F6F12833A88000020FCA9F1D262
:104CE0004D62603FFC010020A69B443B7F6ABC7480
:104CF000732AD93E1CB50446062269463B2000F0C3
:104D0000B9F8BDF8000040BA2080BDF8020040BAF2
:104D10006080BDF8040040BAA0801CBD1CB50446EC
:104D200006226946432000F0A5F8BDF8000040BA0D
:104D30002080BDF8020040BA6080BDF8040040BA8F
:104D4000A0801CBD08B500208DF800000122694636
:104D5000752000F08FF89DF80000682803D07D21B1
:104D600002A001F07DFF012008BD00002E2E5C4353
:104D70006F64655C7372635C6D7075363035302EB0
:104D8000630000002DE9F0411F4C20885F30208037
:104D9000608830306080B4F9040003F026F8002207
:104DA0001A4B02F0EBFD02F0F1FFA080A4F15000DD
:104DB00000F1560CB0F900604680B0F9065005814C
:104DC000B0F90C40C481BCF900200280BCF902306B
:104DD000C380961BBCF9041006F164078181C82FBB
:104DE00004D85D1B868045810C1B04828488121BBD
:104DF000ACF8002042899A1AACF80220008A081AFE
:104E0000ACF80400BDE8F0815400002000001AC096
:104E100010B5FFF797FF002808D00548FFF76AFF95
:104E20000348BDE81040801FFFF778BF10BD0000A9
:104E30005A00002010B50E48FFF71CFB4FF47A70A3
:104E4000FDF7CEFC00216B2000F0AEF80721192001
:104E500000F0AAF806211A2000F0A6F800211C2074
:104E600000F0A2F80021BDE810401B2000F09CB823
:104E70006C0000200B4610B50146682001F034F8A4
:104E8000002805D0BDE810407121024801F0E8BEBD
:104E900010BD0000C44F00082DE9F0473D4DB5F9A5
:104EA000000003F0CFFB6FF00D07394603F0CCFD97
:104EB000DFF8E480414603F003FBA5F1560460628D
:104EC000B5F9020003F0BEFB394603F0BDFD4146D3
:104ED00003F0F6FA0646A062B5F9040003F0B2FB4F
:104EE000394603F0B1FD414603F0EAFAAD1F07462B
:104EF000E062B5F9000003F0A5FBDFF8A090494699
:104F000003F0DEFADFF89880414603F0D9FA206317
:104F1000B5F9020003F096FB494603F0D1FA414689
:104F200003F0CEFA6063B5F9040003F08BFB494649
:104F300003F0C6FA414603F0C3FAA063384603F013
:104F40002BFA07460D46304603F026FA3A462B4622
:104F500001F0B8FFDFF84C804FF06636324643462A
:104F600002F05AFF02F0D8FCE063E06A03F014FAA2
:104F700005460F46606A03F00FFA2A463B4601F0E9
:104F8000A1FF3246434602F047FF02F0C5FC206411
:104F9000BDE8F0875A000020CDCC1C4133330343D9
:104FA0003333654266A64C4013B5014601AB01227E
:104FB000682000F0BBFF002803D0672101A001F0AA
:104FC0004FFE1CBD2E2E5C436F64655C7372635C88
:104FD0006D7075363035302E630000000D4810B509
:104FE0000B4901601021416000218160C1600161B5
:104FF0004161017641768176C17601774177FCF790
:1050000015FF002803D0BDE81040FCF7B1BC10BD6F
:1050100000640040200200200D4810B50B490160DB
:105020001021416000218160C16001614161017610
:1050300041768176C17601774177FCF7F7FE00284B
:1050400003D0BDE81040FCF793BC10BD00680040E1
:10505000480200200D4808B5016841F48001016054
:105060000068002200F48000009011463A20FDF70D
:105070003BFF3A20FDF706FF002211464620FDF7D0
:1050800033FFBDE808404620FDF7FCBE3038024043
:105090000F4810B50D4901604FF482714160002145
:1050A0008160C1604FF480220161C0E90512C161D5
:1050B0000162416281620A21C162FEF7F1FB0028B0
:1050C00003D0BDE81040FCF753BC10BD00300140D8
:1050D000700200201CB500240E4800940C49019475
:1050E000C0E900144FF6FF71C0E902418461FEF788
:1050F000F1FD08B1FCF73CFC0094694605480194B9
:10510000FEF740FD002801D0FCF732FC1CBD00007A
:1051100000100040C80200201CB500240E48009476
:105120000C490194C0E900144FF6FF71C0E9024137
:105130008461FEF7CFFD08B1FCF71AFC00946946C4
:1051400005480194FEF71EFD002801D0FCF710FC75
:105150001CBD0000001400401003002010B50E4CD0
:105160000C480C2120604FF4E13060600020A0600A
:10517000E060C4E90401A061E0612046FEF7B8FFE9
:1051800008B1FCF7F5FB2068C16841F01001C1606F
:1051900010BD000000100140580700200C4810B559
:1051A0000A4901604FF4E1314160002181600C2225
:1051B000C160C0E904128161C161FEF799FF002856
:1051C00003D0BDE81040FCF7D3BB10BD0044004045
:1051D0009C0700202DE9FF4FDFF818B499B09A46DC
:1051E000DBF800001B99069003F044FADFF808840E
:1051F00007461A99D8F80000049003F03BFAFF4DD7
:10520000044619992E6886F0004003F033FA2146CF
:1052100003F006FB394603F003FB4FF0FF37394636
:1052200003F012FC81461A99069803F023FA0090C5
:105230001B99049803F01EFAF14C02902168059125
:10524000199803F017FA029903F0D2F8009903F0C5
:10525000E7FA394603F0F8FB0C900699199803F029
:1052600009FA019030461B9903F004FA02901A994A
:10527000059803F0FFF9029903F0D2FA019903F0BF
:10528000B7F8394603F0E0FB0B900499199803F046
:10529000F1F9009030461A9903F0ECF906461B9993
:1052A000059803F0E7F9314603F0A2F8009903F0FE
:1052B000B7FA394603F0C8FB07461AF0FF4F07D18B
:1052C000269810F0FF4F03D1279810F0FF4F7DD0A4
:1052D0002799084603F0CEF926990090084603F076
:1052E000C9F906465146084603F0C4F9314603F0B1
:1052F0007FF8009903F07CF801F0CEFF06460146E6
:10530000504603F0B7F91C903146269803F0B2F9E5
:1053100026903146279803F0ADF9279020680121A7
:10532000064603F091FB169028680121109003F0C7
:105330008BFB1490D8F8000001210D9003F084FB42
:105340001590DBF800000121029003F07DFB17901F
:105350000221304603F078FB04900221109803F0FC
:1053600073FB824602210D9803F06EFB059003212A
:10537000109803F069FB089003210D9803F064FB7B
:1053800031460790084603F075F9109912900846C7
:1053900003F070F90D990190084603F06BF902993A
:1053A0000090084603F066F906902699149803F0D9
:1053B00061F90E900199049803F05CF911901C9921
:1053C000159803F057F90646009900E0F6E00498B6
:1053D00003F050F9314603F00BF8119903F008F887
:1053E0000E9903F01DFA04905046279903F042F9F4
:1053F0000F900099089803F03DF90E9001990898D4
:1054000003F038F911902699169803F033F90890B3
:105410000221129803F018FB1890109903F02AF952
:1054200006461C99179803F025F9139050460699E3
:1054300003F020F9139903F0F3F9314602F0D8FF95
:10544000089903F0EDF9514603F0EAF9119902F0D9
:10545000CFFF0E9902F0CCFF0F9902F0C9FF039025
:105460002799059803F006F908900099079803F02A
:1054700001F90E900199079803F0FCF80F90269916
:10548000179803F0F7F80790DDE9050103F0F2F84B
:1054900082461C99169803F0EDF806460D99189867
:1054A00003F0E8F8314602F0A3FF514602F0A0FFF6
:1054B000079903F0B5F9059903F0B2F90F9902F0D5
:1054C00097FF0E9902F094FF089902F091FF82462F
:1054D0002699159803F0CEF806900221009803F063
:1054E000B3FA029903F0C6F806461C99149803F023
:1054F000C1F800900221019803F0A6FA029903F086
:10550000B9F8009903F08CF9314602F071FF069961
:1055100003F086F90646014603F0ACF851460790C1
:10552000084603F0A7F803990090084603F0A2F894
:1055300004990690084603F09DF8069902F058FF7A
:10554000009902F055FF079902F052FF01F0A4FE06
:1055500001460090049803F08DF804900099039898
:1055600003F088F803905046009903F083F88246D0
:105570003046009903F07EF8224E0190049930687D
:1055800003F078F8494603F041F981460399306801
:1055900003F070F80C9903F039F90C90514630681B
:1055A00003F068F80B9903F031F90B90019930681A
:1055B00003F060F8394603F029F9074612494846D6
:1055C00003F058F8216802F013FF824620600E496C
:1055D0000C9803F04FF8296802F00AFF8146286012
:1055E00009490B9803F046F84646D8F8001002F037
:1055F000FFFE0BE024000020200000201C00002003
:1056000018000020380100206F12033B80463060F4
:105610006F49384603F02EF85F46DBF8001002F0C1
:10562000E7FE0146386003F025F84146029008463F
:1056300003F020F883464946084603F01BF88046ED
:105640005146084603F016F8414602F0D1FE59468D
:1056500002F0CEFE029902F0CBFE01F01DFE804664
:105660000146206803F006F883462060414628681A
:1056700003F000F8286002904146306802F0FAFF1B
:10568000824630604146386802F0F4FF8146386057
:105690000121584603F0D8F9514602F0EBFF80464D
:1056A0004FF0404A5146029802F0E4FF494602F0AA
:1056B000E1FF414602F09CFE02F06EFE01F098F917
:1056C0004FF0663B5A46434B02F0A6FB02F024F92A
:1056D0004149086030680121804603F0B5F9414630
:1056E000049002F0C7FF804628685146824602F0C7
:1056F000C1FF514602F0BEFF414603F091F84FF062
:105700007E5102F075FE02F047FE80468946012177
:10571000206803F099F9514602F0ACFF82460498E4
:10572000396802F0A7FF514602F062FE02F034FE33
:1057300042464B4601F0C6FB5A46264B02F06CFB34
:1057400002F0EAF82549086039688946484602F0BF
:1057500091FF316807468846404602F08BFF296872
:1057600006460846009102F085FF216805468A46F4
:10577000504602F07FFF294602F03AFE314603F020
:105780004FF8394603F04CF802F006FE04460D4689
:105790004946504602F06EFF06464146009802F028
:1057A00069FF314602F024FE012103F04DF902F0B9
:1057B000F3FD22462B4601F085FB5A46054B02F0CD
:1057C0002BFB02F0A9F8064908601DB0BDE8F08F78
:1057D0006F12033B66A64C404C000020480000209E
:1057E000500000202DE9FF4F8BB0DFF870B4DDE9E9
:1057F0001865DFF86C84DFF86CA41C46914613F042
:10580000FF4F05D116F0FF4F02D115F0FF4F7DD0AD
:105810002946284602F02EFF31460290084602F043
:1058200029FF07462146084602F024FF394602F0C8
:10583000DFFD029902F0DCFD01F02EFD0746014676
:10584000204602F017FF0E903946304602F012FF54
:1058500018903946284602F00DFF1990DBF8001029
:105860000591D8F80000064602F004FF0546FE4800
:105870000168DAF800000C46039002F0FBFE2946AE
:1058800002F0CEFF07462146059802F0F3FE0546DA
:105890003046039902F0EEFE294602F0A9FD0546C6
:1058A0002146084602F0E6FE04463146084602F06C
:1058B000E1FE4FF07C5102F0B3FF214602F098FD6B
:1058C00004462946199802F0D5FE06462146189846
:1058D00002F0D0FE314602F0A3FF064621460E98A4
:1058E00002F0C8FE04463946199802F0C3FE21466C
:1058F00002F096FF05903946189802F0BBFE044668
:1059000029460E9802F0B6FE214600E055E002F06E
:1059100087FFD64C05466068B0F5000F31DB314695
:10592000606802F0A7FED24F394602F0A3FEA168DC
:1059300002F05EFDA0600599606802F09BFE3946AA
:1059400002F098FEE16802F053FDE06029466068CD
:1059500002F090FE394602F08DFE216902F048FD0A
:105960002061A1680B9802F043FD0B90E1680C9850
:1059700002F03EFD0C902169484602F039FD814657
:1059800003E00020A060E06020613146206802F062
:1059900071FE0B9902F02CFD0B900599206802F026
:1059A00069FE0C9902F024FD0C902946206802F053
:1059B00061FE494602F01CFD8146AE4C0B98214623
:1059C00002F058FE0B9021460C9802F053FE0C900A
:1059D0002146484602F04EFE0D90D8F80000069091
:1059E00044468146DAF80080DBF800009E4F0090C4
:1059F00004900D99386855465E46039002F03AFED1
:105A000083460C99049802F035FE824688F00040E7
:105A10000B9902F02FFE514602F002FF594602F0A8
:105A2000FFFE494602F0E4FC206083460C9903988F
:105A300002F020FE82460D99049802F01BFE81467A
:105A400006990B9802F016FE494602F0D1FC514629
:105A500002F0E6FE414602F0CBFC28608246039944
:105A60000B9802F007FE019040460D9902F002FEED
:105A700081460C99069802F0FDFD494602F0D0FEE1
:105A8000019902F0B5FC009902F0B2FC3060814649
:105A900004990B9802F0EEFD009040460C9902F03C
:105AA000E9FD80460D99069802F0E4FD414602F0BA
:105AB0009FFC009902F0B4FE039902F099FC0146A4
:105AC000386002F0D7FD49460290084602F0D2FD48
:105AD00081465146084602F0CDFD804659460846AB
